{
  "contractName": "NftMarket",
  "abi": [
    {
      "inputs": [],
      "stateMutability": "nonpayable",
      "type": "constructor"
    },
    {
      "anonymous": false,
      "inputs": [
        {
          "indexed": true,
          "internalType": "address",
          "name": "owner",
          "type": "address"
        },
        {
          "indexed": true,
          "internalType": "address",
          "name": "approved",
          "type": "address"
        },
        {
          "indexed": true,
          "internalType": "uint256",
          "name": "tokenId",
          "type": "uint256"
        }
      ],
      "name": "Approval",
      "type": "event"
    },
    {
      "anonymous": false,
      "inputs": [
        {
          "indexed": true,
          "internalType": "address",
          "name": "owner",
          "type": "address"
        },
        {
          "indexed": true,
          "internalType": "address",
          "name": "operator",
          "type": "address"
        },
        {
          "indexed": false,
          "internalType": "bool",
          "name": "approved",
          "type": "bool"
        }
      ],
      "name": "ApprovalForAll",
      "type": "event"
    },
    {
      "anonymous": false,
      "inputs": [
        {
          "indexed": false,
          "internalType": "uint256",
          "name": "tokenId",
          "type": "uint256"
        },
        {
          "indexed": false,
          "internalType": "uint256",
          "name": "price",
          "type": "uint256"
        },
        {
          "indexed": false,
          "internalType": "address",
          "name": "creator",
          "type": "address"
        },
        {
          "indexed": false,
          "internalType": "bool",
          "name": "isListed",
          "type": "bool"
        }
      ],
      "name": "NftItemCreated",
      "type": "event"
    },
    {
      "anonymous": false,
      "inputs": [
        {
          "indexed": true,
          "internalType": "address",
          "name": "previousOwner",
          "type": "address"
        },
        {
          "indexed": true,
          "internalType": "address",
          "name": "newOwner",
          "type": "address"
        }
      ],
      "name": "OwnershipTransferred",
      "type": "event"
    },
    {
      "anonymous": false,
      "inputs": [
        {
          "indexed": true,
          "internalType": "address",
          "name": "from",
          "type": "address"
        },
        {
          "indexed": true,
          "internalType": "address",
          "name": "to",
          "type": "address"
        },
        {
          "indexed": true,
          "internalType": "uint256",
          "name": "tokenId",
          "type": "uint256"
        }
      ],
      "name": "Transfer",
      "type": "event"
    },
    {
      "inputs": [
        {
          "internalType": "address",
          "name": "to",
          "type": "address"
        },
        {
          "internalType": "uint256",
          "name": "tokenId",
          "type": "uint256"
        }
      ],
      "name": "approve",
      "outputs": [],
      "stateMutability": "nonpayable",
      "type": "function"
    },
    {
      "inputs": [
        {
          "internalType": "address",
          "name": "owner",
          "type": "address"
        }
      ],
      "name": "balanceOf",
      "outputs": [
        {
          "internalType": "uint256",
          "name": "",
          "type": "uint256"
        }
      ],
      "stateMutability": "view",
      "type": "function",
      "constant": true
    },
    {
      "inputs": [
        {
          "internalType": "uint256",
          "name": "tokenId",
          "type": "uint256"
        }
      ],
      "name": "getApproved",
      "outputs": [
        {
          "internalType": "address",
          "name": "",
          "type": "address"
        }
      ],
      "stateMutability": "view",
      "type": "function",
      "constant": true
    },
    {
      "inputs": [
        {
          "internalType": "address",
          "name": "owner",
          "type": "address"
        },
        {
          "internalType": "address",
          "name": "operator",
          "type": "address"
        }
      ],
      "name": "isApprovedForAll",
      "outputs": [
        {
          "internalType": "bool",
          "name": "",
          "type": "bool"
        }
      ],
      "stateMutability": "view",
      "type": "function",
      "constant": true
    },
    {
      "inputs": [],
      "name": "listingPrice",
      "outputs": [
        {
          "internalType": "uint256",
          "name": "",
          "type": "uint256"
        }
      ],
      "stateMutability": "view",
      "type": "function",
      "constant": true
    },
    {
      "inputs": [],
      "name": "name",
      "outputs": [
        {
          "internalType": "string",
          "name": "",
          "type": "string"
        }
      ],
      "stateMutability": "view",
      "type": "function",
      "constant": true
    },
    {
      "inputs": [],
      "name": "owner",
      "outputs": [
        {
          "internalType": "address",
          "name": "",
          "type": "address"
        }
      ],
      "stateMutability": "view",
      "type": "function",
      "constant": true
    },
    {
      "inputs": [
        {
          "internalType": "uint256",
          "name": "tokenId",
          "type": "uint256"
        }
      ],
      "name": "ownerOf",
      "outputs": [
        {
          "internalType": "address",
          "name": "",
          "type": "address"
        }
      ],
      "stateMutability": "view",
      "type": "function",
      "constant": true
    },
    {
      "inputs": [],
      "name": "renounceOwnership",
      "outputs": [],
      "stateMutability": "nonpayable",
      "type": "function"
    },
    {
      "inputs": [
        {
          "internalType": "address",
          "name": "from",
          "type": "address"
        },
        {
          "internalType": "address",
          "name": "to",
          "type": "address"
        },
        {
          "internalType": "uint256",
          "name": "tokenId",
          "type": "uint256"
        }
      ],
      "name": "safeTransferFrom",
      "outputs": [],
      "stateMutability": "nonpayable",
      "type": "function"
    },
    {
      "inputs": [
        {
          "internalType": "address",
          "name": "from",
          "type": "address"
        },
        {
          "internalType": "address",
          "name": "to",
          "type": "address"
        },
        {
          "internalType": "uint256",
          "name": "tokenId",
          "type": "uint256"
        },
        {
          "internalType": "bytes",
          "name": "data",
          "type": "bytes"
        }
      ],
      "name": "safeTransferFrom",
      "outputs": [],
      "stateMutability": "nonpayable",
      "type": "function"
    },
    {
      "inputs": [
        {
          "internalType": "address",
          "name": "operator",
          "type": "address"
        },
        {
          "internalType": "bool",
          "name": "approved",
          "type": "bool"
        }
      ],
      "name": "setApprovalForAll",
      "outputs": [],
      "stateMutability": "nonpayable",
      "type": "function"
    },
    {
      "inputs": [
        {
          "internalType": "bytes4",
          "name": "interfaceId",
          "type": "bytes4"
        }
      ],
      "name": "supportsInterface",
      "outputs": [
        {
          "internalType": "bool",
          "name": "",
          "type": "bool"
        }
      ],
      "stateMutability": "view",
      "type": "function",
      "constant": true
    },
    {
      "inputs": [],
      "name": "symbol",
      "outputs": [
        {
          "internalType": "string",
          "name": "",
          "type": "string"
        }
      ],
      "stateMutability": "view",
      "type": "function",
      "constant": true
    },
    {
      "inputs": [
        {
          "internalType": "uint256",
          "name": "tokenId",
          "type": "uint256"
        }
      ],
      "name": "tokenURI",
      "outputs": [
        {
          "internalType": "string",
          "name": "",
          "type": "string"
        }
      ],
      "stateMutability": "view",
      "type": "function",
      "constant": true
    },
    {
      "inputs": [
        {
          "internalType": "address",
          "name": "from",
          "type": "address"
        },
        {
          "internalType": "address",
          "name": "to",
          "type": "address"
        },
        {
          "internalType": "uint256",
          "name": "tokenId",
          "type": "uint256"
        }
      ],
      "name": "transferFrom",
      "outputs": [],
      "stateMutability": "nonpayable",
      "type": "function"
    },
    {
      "inputs": [
        {
          "internalType": "address",
          "name": "newOwner",
          "type": "address"
        }
      ],
      "name": "transferOwnership",
      "outputs": [],
      "stateMutability": "nonpayable",
      "type": "function"
    },
    {
      "inputs": [
        {
          "internalType": "uint256",
          "name": "newPrice",
          "type": "uint256"
        }
      ],
      "name": "setListingPrice",
      "outputs": [],
      "stateMutability": "nonpayable",
      "type": "function"
    },
    {
      "inputs": [
        {
          "internalType": "uint256",
          "name": "tokenId",
          "type": "uint256"
        }
      ],
      "name": "getNftItem",
      "outputs": [
        {
          "components": [
            {
              "internalType": "uint256",
              "name": "tokenId",
              "type": "uint256"
            },
            {
              "internalType": "uint256",
              "name": "price",
              "type": "uint256"
            },
            {
              "internalType": "address",
              "name": "creator",
              "type": "address"
            },
            {
              "internalType": "bool",
              "name": "isListed",
              "type": "bool"
            }
          ],
          "internalType": "struct NftMarket.NftItem",
          "name": "",
          "type": "tuple"
        }
      ],
      "stateMutability": "view",
      "type": "function",
      "constant": true
    },
    {
      "inputs": [],
      "name": "listedItemsCount",
      "outputs": [
        {
          "internalType": "uint256",
          "name": "",
          "type": "uint256"
        }
      ],
      "stateMutability": "view",
      "type": "function",
      "constant": true
    },
    {
      "inputs": [
        {
          "internalType": "string",
          "name": "tokenURI",
          "type": "string"
        }
      ],
      "name": "tokenURIExists",
      "outputs": [
        {
          "internalType": "bool",
          "name": "",
          "type": "bool"
        }
      ],
      "stateMutability": "view",
      "type": "function",
      "constant": true
    },
    {
      "inputs": [],
      "name": "totalSupply",
      "outputs": [
        {
          "internalType": "uint256",
          "name": "",
          "type": "uint256"
        }
      ],
      "stateMutability": "view",
      "type": "function",
      "constant": true
    },
    {
      "inputs": [
        {
          "internalType": "uint256",
          "name": "index",
          "type": "uint256"
        }
      ],
      "name": "tokenByIndex",
      "outputs": [
        {
          "internalType": "uint256",
          "name": "",
          "type": "uint256"
        }
      ],
      "stateMutability": "view",
      "type": "function",
      "constant": true
    },
    {
      "inputs": [
        {
          "internalType": "address",
          "name": "owner",
          "type": "address"
        },
        {
          "internalType": "uint256",
          "name": "index",
          "type": "uint256"
        }
      ],
      "name": "tokenOfOwnerByIndex",
      "outputs": [
        {
          "internalType": "uint256",
          "name": "",
          "type": "uint256"
        }
      ],
      "stateMutability": "view",
      "type": "function",
      "constant": true
    },
    {
      "inputs": [],
      "name": "getAllNftsOnSale",
      "outputs": [
        {
          "components": [
            {
              "internalType": "uint256",
              "name": "tokenId",
              "type": "uint256"
            },
            {
              "internalType": "uint256",
              "name": "price",
              "type": "uint256"
            },
            {
              "internalType": "address",
              "name": "creator",
              "type": "address"
            },
            {
              "internalType": "bool",
              "name": "isListed",
              "type": "bool"
            }
          ],
          "internalType": "struct NftMarket.NftItem[]",
          "name": "",
          "type": "tuple[]"
        }
      ],
      "stateMutability": "view",
      "type": "function",
      "constant": true
    },
    {
      "inputs": [
        {
          "internalType": "uint256",
          "name": "tokenId",
          "type": "uint256"
        }
      ],
      "name": "burnToken",
      "outputs": [],
      "stateMutability": "nonpayable",
      "type": "function"
    },
    {
      "inputs": [],
      "name": "getOwnedNfts",
      "outputs": [
        {
          "components": [
            {
              "internalType": "uint256",
              "name": "tokenId",
              "type": "uint256"
            },
            {
              "internalType": "uint256",
              "name": "price",
              "type": "uint256"
            },
            {
              "internalType": "address",
              "name": "creator",
              "type": "address"
            },
            {
              "internalType": "bool",
              "name": "isListed",
              "type": "bool"
            }
          ],
          "internalType": "struct NftMarket.NftItem[]",
          "name": "",
          "type": "tuple[]"
        }
      ],
      "stateMutability": "view",
      "type": "function",
      "constant": true
    },
    {
      "inputs": [
        {
          "internalType": "string",
          "name": "tokenURI",
          "type": "string"
        },
        {
          "internalType": "uint256",
          "name": "price",
          "type": "uint256"
        }
      ],
      "name": "mintToken",
      "outputs": [
        {
          "internalType": "uint256",
          "name": "",
          "type": "uint256"
        }
      ],
      "stateMutability": "payable",
      "type": "function",
      "payable": true
    },
    {
      "inputs": [
        {
          "internalType": "uint256",
          "name": "tokenId",
          "type": "uint256"
        }
      ],
      "name": "buyNft",
      "outputs": [],
      "stateMutability": "payable",
      "type": "function",
      "payable": true
    },
    {
      "inputs": [
        {
          "internalType": "uint256",
          "name": "tokenId",
          "type": "uint256"
        },
        {
          "internalType": "uint256",
          "name": "newPrice",
          "type": "uint256"
        }
      ],
      "name": "placeNftOnSale",
      "outputs": [],
      "stateMutability": "payable",
      "type": "function",
      "payable": true
    },
    {
      "inputs": [
        {
          "internalType": "uint256",
          "name": "tokenId",
          "type": "uint256"
        }
      ],
      "name": "unlistNft",
      "outputs": [],
      "stateMutability": "nonpayable",
      "type": "function"
    }
  ],
  "bytecode": "0x60806040526658d15e17628000600a553480156200001c57600080fd5b506040518060400160405280600c81526020017f4372656174757265734e465400000000000000000000000000000000000000008152506040518060400160405280600481526020017f434e46540000000000000000000000000000000000000000000000000000000081525081600090816200009a91906200041d565b508060019081620000ac91906200041d565b505050620000cf620000c3620000d560201b60201c565b620000dd60201b60201c565b62000504565b600033905090565b6000600760009054906101000a900473ffffffffffffffffffffffffffffffffffffffff16905081600760006101000a81548173ffffffffffffffffffffffffffffffffffffffff021916908373ffffffffffffffffffffffffffffffffffffffff1602179055508173ffffffffffffffffffffffffffffffffffffffff168173ffffffffffffffffffffffffffffffffffffffff167f8be0079c531659141344cd1fd0a4f28419497f9722a3daafe3b4186f6b6457e060405160405180910390a35050565b600081519050919050565b7f4e487b7100000000000000000000000000000000000000000000000000000000600052604160045260246000fd5b7f4e487b7100000000000000000000000000000000000000000000000000000000600052602260045260246000fd5b600060028204905060018216806200022557607f821691505b6020821081036200023b576200023a620001dd565b5b50919050565b60008190508160005260206000209050919050565b60006020601f8301049050919050565b600082821b905092915050565b600060088302620002a57fffffffffffffffffffffffffffffffffffffffffffffffffffffffffffffffff8262000266565b620002b1868362000266565b95508019841693508086168417925050509392505050565b6000819050919050565b6000819050919050565b6000620002fe620002f8620002f284620002c9565b620002d3565b620002c9565b9050919050565b6000819050919050565b6200031a83620002dd565b62000332620003298262000305565b84845462000273565b825550505050565b600090565b620003496200033a565b620003568184846200030f565b505050565b5b818110156200037e57620003726000826200033f565b6001810190506200035c565b5050565b601f821115620003cd57620003978162000241565b620003a28462000256565b81016020851015620003b2578190505b620003ca620003c18562000256565b8301826200035b565b50505b505050565b600082821c905092915050565b6000620003f260001984600802620003d2565b1980831691505092915050565b60006200040d8383620003df565b9150826002028217905092915050565b6200042882620001a3565b67ffffffffffffffff811115620004445762000443620001ae565b5b6200045082546200020c565b6200045d82828562000382565b600060209050601f83116001811462000495576000841562000480578287015190505b6200048c8582620003ff565b865550620004fc565b601f198416620004a58662000241565b60005b82811015620004cf57848901518255600182019150602085019450602081019050620004a8565b86831015620004ef5784890151620004eb601f891682620003df565b8355505b6001600288020188555050505b505050505050565b614e0a80620005146000396000f3fe6080604052600436106101d85760003560e01c806370a0823111610102578063a22cb46511610095578063c87b56dd11610064578063c87b56dd146106b9578063ccb4918d146106f6578063e985e9c514610721578063f2fde38b1461075e576101d8565b8063a22cb4651461060c578063b88d4fde14610635578063c046372c1461065e578063c78f19f91461068e576101d8565b80637c726b69116100d15780637c726b69146105645780638da5cb5b1461058d57806395d89b41146105b85780639e75689c146105e3576101d8565b806370a08231146104bc57806370cbcb43146104f9578063715018a6146105245780637b47ec1a1461053b576101d8565b8063243adbdd1161017a57806343d32ae71161014957806343d32ae7146103c85780634f6ccce7146104055780636352211e146104425780636f1a0af51461047f576101d8565b8063243adbdd1461031b5780632f745c591461033757806336b536be1461037457806342842e0e1461039f576101d8565b8063095ea7b3116101b6578063095ea7b31461028257806318160ddd146102ab57806321f422e5146102d657806323b872dd146102f2576101d8565b806301ffc9a7146101dd57806306fdde031461021a578063081812fc14610245575b600080fd5b3480156101e957600080fd5b5061020460048036038101906101ff91906133b8565b610787565b6040516102119190613400565b60405180910390f35b34801561022657600080fd5b5061022f610869565b60405161023c91906134ab565b60405180910390f35b34801561025157600080fd5b5061026c60048036038101906102679190613503565b6108fb565b6040516102799190613571565b60405180910390f35b34801561028e57600080fd5b506102a960048036038101906102a491906135b8565b610941565b005b3480156102b757600080fd5b506102c0610a58565b6040516102cd9190613607565b60405180910390f35b6102f060048036038101906102eb9190613622565b610a65565b005b3480156102fe57600080fd5b5061031960048036038101906103149190613662565b610be1565b005b61033560048036038101906103309190613503565b610c41565b005b34801561034357600080fd5b5061035e600480360381019061035991906135b8565b610da9565b60405161036b9190613607565b60405180910390f35b34801561038057600080fd5b50610389610e4e565b60405161039691906137e6565b60405180910390f35b3480156103ab57600080fd5b506103c660048036038101906103c19190613662565b610fe8565b005b3480156103d457600080fd5b506103ef60048036038101906103ea919061393d565b611008565b6040516103fc9190613400565b60405180910390f35b34801561041157600080fd5b5061042c60048036038101906104279190613503565b611044565b6040516104399190613607565b60405180910390f35b34801561044e57600080fd5b5061046960048036038101906104649190613503565b6110b5565b6040516104769190613571565b60405180910390f35b34801561048b57600080fd5b506104a660048036038101906104a19190613503565b61113b565b6040516104b391906139db565b60405180910390f35b3480156104c857600080fd5b506104e360048036038101906104de91906139f6565b6111ed565b6040516104f09190613607565b60405180910390f35b34801561050557600080fd5b5061050e6112a4565b60405161051b91906137e6565b60405180910390f35b34801561053057600080fd5b50610539611408565b005b34801561054757600080fd5b50610562600480360381019061055d9190613503565b61141c565b005b34801561057057600080fd5b5061058b60048036038101906105869190613503565b611428565b005b34801561059957600080fd5b506105a261147d565b6040516105af9190613571565b60405180910390f35b3480156105c457600080fd5b506105cd6114a7565b6040516105da91906134ab565b60405180910390f35b3480156105ef57600080fd5b5061060a60048036038101906106059190613503565b611539565b005b34801561061857600080fd5b50610633600480360381019061062e9190613a4f565b611655565b005b34801561064157600080fd5b5061065c60048036038101906106579190613b30565b61166b565b005b61067860048036038101906106739190613bb3565b6116cd565b6040516106859190613607565b60405180910390f35b34801561069a57600080fd5b506106a36117dd565b6040516106b09190613607565b60405180910390f35b3480156106c557600080fd5b506106e060048036038101906106db9190613503565b6117e3565b6040516106ed91906134ab565b60405180910390f35b34801561070257600080fd5b5061070b6118f5565b6040516107189190613607565b60405180910390f35b34801561072d57600080fd5b5061074860048036038101906107439190613c0f565b611906565b6040516107559190613400565b60405180910390f35b34801561076a57600080fd5b50610785600480360381019061078091906139f6565b61199a565b005b60007f80ac58cd000000000000000000000000000000000000000000000000000000007bffffffffffffffffffffffffffffffffffffffffffffffffffffffff1916827bffffffffffffffffffffffffffffffffffffffffffffffffffffffff1916148061085257507f5b5e139f000000000000000000000000000000000000000000000000000000007bffffffffffffffffffffffffffffffffffffffffffffffffffffffff1916827bffffffffffffffffffffffffffffffffffffffffffffffffffffffff1916145b80610862575061086182611a1d565b5b9050919050565b60606000805461087890613c7e565b80601f01602080910402602001604051908101604052809291908181526020018280546108a490613c7e565b80156108f15780601f106108c6576101008083540402835291602001916108f1565b820191906000526020600020905b8154815290600101906020018083116108d457829003601f168201915b5050505050905090565b600061090682611a87565b6004600083815260200190815260200160002060009054906101000a900473ffffffffffffffffffffffffffffffffffffffff169050919050565b600061094c826110b5565b90508073ffffffffffffffffffffffffffffffffffffffff168373ffffffffffffffffffffffffffffffffffffffff16036109bc576040517f08c379a00000000000000000000000000000000000000000000000000000000081526004016109b390613d21565b60405180910390fd5b8073ffffffffffffffffffffffffffffffffffffffff166109db611ad2565b73ffffffffffffffffffffffffffffffffffffffff161480610a0a5750610a0981610a04611ad2565b611906565b5b610a49576040517f08c379a0000000000000000000000000000000000000000000000000000000008152600401610a4090613db3565b60405180910390fd5b610a538383611ada565b505050565b6000600b80549050905090565b3373ffffffffffffffffffffffffffffffffffffffff16610a85836110b5565b73ffffffffffffffffffffffffffffffffffffffff1614610adb576040517f08c379a0000000000000000000000000000000000000000000000000000000008152600401610ad290613e1f565b60405180910390fd5b60001515600c600084815260200190815260200160002060020160149054906101000a900460ff16151514610b45576040517f08c379a0000000000000000000000000000000000000000000000000000000008152600401610b3c90613e8b565b60405180910390fd5b600a543414610b89576040517f08c379a0000000000000000000000000000000000000000000000000000000008152600401610b8090613f1d565b60405180910390fd5b6001600c600084815260200190815260200160002060020160146101000a81548160ff02191690831515021790555080600c600084815260200190815260200160002060010181905550610bdd6008611b93565b5050565b610bf2610bec611ad2565b82611ba9565b610c31576040517f08c379a0000000000000000000000000000000000000000000000000000000008152600401610c2890613faf565b60405180910390fd5b610c3c838383611c3e565b505050565b6000600c60008381526020019081526020016000206001015490506000610c67836110b5565b90508073ffffffffffffffffffffffffffffffffffffffff163373ffffffffffffffffffffffffffffffffffffffff1603610cd7576040517f08c379a0000000000000000000000000000000000000000000000000000000008152600401610cce9061401b565b60405180910390fd5b813414610d19576040517f08c379a0000000000000000000000000000000000000000000000000000000008152600401610d1090614087565b60405180910390fd5b6000600c600085815260200190815260200160002060020160146101000a81548160ff021916908315150217905550610d526008611f37565b610d5d813385611c3e565b8073ffffffffffffffffffffffffffffffffffffffff166108fc349081150290604051600060405180830381858888f19350505050158015610da3573d6000803e3d6000fd5b50505050565b6000610db4836111ed565b8210610df5576040517f08c379a0000000000000000000000000000000000000000000000000000000008152600401610dec906140f3565b60405180910390fd5b600f60008473ffffffffffffffffffffffffffffffffffffffff1673ffffffffffffffffffffffffffffffffffffffff168152602001908152602001600020600083815260200190815260200160002054905092915050565b60606000610e5a610a58565b9050600080610e696008611f93565b67ffffffffffffffff811115610e8257610e81613812565b5b604051908082528060200260200182016040528015610ebb57816020015b610ea86132af565b815260200190600190039081610ea05790505b50905060005b83811015610fde576000610ed482611044565b90506000600c60008381526020019081526020016000209050600115158160020160149054906101000a900460ff16151503610fc9578060405180608001604052908160008201548152602001600182015481526020016002820160009054906101000a900473ffffffffffffffffffffffffffffffffffffffff1673ffffffffffffffffffffffffffffffffffffffff1673ffffffffffffffffffffffffffffffffffffffff1681526020016002820160149054906101000a900460ff161515151581525050848681518110610fae57610fad614113565b5b6020026020010181905250600185610fc69190614171565b94505b50508080610fd6906141a5565b915050610ec1565b5080935050505090565b6110038383836040518060200160405280600081525061166b565b505050565b600060011515600d8360405161101e9190614229565b908152602001604051809103902060009054906101000a900460ff161515149050919050565b600061104e610a58565b821061108f576040517f08c379a0000000000000000000000000000000000000000000000000000000008152600401611086906140f3565b60405180910390fd5b600b82815481106110a3576110a2614113565b5b90600052602060002001549050919050565b6000806110c183611fa1565b9050600073ffffffffffffffffffffffffffffffffffffffff168173ffffffffffffffffffffffffffffffffffffffff1603611132576040517f08c379a00000000000000000000000000000000000000000000000000000000081526004016111299061428c565b60405180910390fd5b80915050919050565b6111436132af565b600c600083815260200190815260200160002060405180608001604052908160008201548152602001600182015481526020016002820160009054906101000a900473ffffffffffffffffffffffffffffffffffffffff1673ffffffffffffffffffffffffffffffffffffffff1673ffffffffffffffffffffffffffffffffffffffff1681526020016002820160149054906101000a900460ff1615151515815250509050919050565b60008073ffffffffffffffffffffffffffffffffffffffff168273ffffffffffffffffffffffffffffffffffffffff160361125d576040517f08c379a00000000000000000000000000000000000000000000000000000000081526004016112549061431e565b60405180910390fd5b600360008373ffffffffffffffffffffffffffffffffffffffff1673ffffffffffffffffffffffffffffffffffffffff168152602001908152602001600020549050919050565b606060006112b1336111ed565b905060008167ffffffffffffffff8111156112cf576112ce613812565b5b60405190808252806020026020018201604052801561130857816020015b6112f56132af565b8152602001906001900390816112ed5790505b50905060005b828110156113ff5760006113223383610da9565b90506000600c600083815260200190815260200160002090508060405180608001604052908160008201548152602001600182015481526020016002820160009054906101000a900473ffffffffffffffffffffffffffffffffffffffff1673ffffffffffffffffffffffffffffffffffffffff1673ffffffffffffffffffffffffffffffffffffffff1681526020016002820160149054906101000a900460ff1615151515815250508484815181106113df576113de614113565b5b6020026020010181905250505080806113f7906141a5565b91505061130e565b50809250505090565b611410611fde565b61141a600061205c565b565b61142581612122565b50565b611430611fde565b60008111611473576040517f08c379a000000000000000000000000000000000000000000000000000000000815260040161146a9061438a565b60405180910390fd5b80600a8190555050565b6000600760009054906101000a900473ffffffffffffffffffffffffffffffffffffffff16905090565b6060600180546114b690613c7e565b80601f01602080910402602001604051908101604052809291908181526020018280546114e290613c7e565b801561152f5780601f106115045761010080835404028352916020019161152f565b820191906000526020600020905b81548152906001019060200180831161151257829003601f168201915b5050505050905090565b3373ffffffffffffffffffffffffffffffffffffffff16611559826110b5565b73ffffffffffffffffffffffffffffffffffffffff16146115af576040517f08c379a00000000000000000000000000000000000000000000000000000000081526004016115a690613e1f565b60405180910390fd5b60011515600c600083815260200190815260200160002060020160149054906101000a900460ff16151514611619576040517f08c379a0000000000000000000000000000000000000000000000000000000008152600401611610906143f6565b60405180910390fd5b6000600c600083815260200190815260200160002060020160146101000a81548160ff0219169083151502179055506116526008611f37565b50565b611667611660611ad2565b8383612175565b5050565b61167c611676611ad2565b83611ba9565b6116bb576040517f08c379a00000000000000000000000000000000000000000000000000000000081526004016116b290613faf565b60405180910390fd5b6116c7848484846122e1565b50505050565b60006116d883611008565b15611718576040517f08c379a000000000000000000000000000000000000000000000000000000000815260040161170f90614462565b60405180910390fd5b600a54341461175c576040517f08c379a000000000000000000000000000000000000000000000000000000000815260040161175390613f1d565b60405180910390fd5b6117666009611b93565b6117706008611b93565b600061177c6009611f93565b9050611788338261233d565b611792818561235b565b61179c81846123c8565b6001600d856040516117ae9190614229565b908152602001604051809103902060006101000a81548160ff0219169083151502179055508091505092915050565b600a5481565b60606117ee82611a87565b600060066000848152602001908152602001600020805461180e90613c7e565b80601f016020809104026020016040519081016040528092919081815260200182805461183a90613c7e565b80156118875780601f1061185c57610100808354040283529160200191611887565b820191906000526020600020905b81548152906001019060200180831161186a57829003601f168201915b505050505090506000611898612518565b905060008151036118ad5781925050506118f0565b6000825111156118e25780826040516020016118ca929190614482565b604051602081830303815290604052925050506118f0565b6118eb8461252f565b925050505b919050565b60006119016008611f93565b905090565b6000600560008473ffffffffffffffffffffffffffffffffffffffff1673ffffffffffffffffffffffffffffffffffffffff16815260200190815260200160002060008373ffffffffffffffffffffffffffffffffffffffff1673ffffffffffffffffffffffffffffffffffffffff16815260200190815260200160002060009054906101000a900460ff16905092915050565b6119a2611fde565b600073ffffffffffffffffffffffffffffffffffffffff168173ffffffffffffffffffffffffffffffffffffffff1603611a11576040517f08c379a0000000000000000000000000000000000000000000000000000000008152600401611a0890614518565b60405180910390fd5b611a1a8161205c565b50565b60007f01ffc9a7000000000000000000000000000000000000000000000000000000007bffffffffffffffffffffffffffffffffffffffffffffffffffffffff1916827bffffffffffffffffffffffffffffffffffffffffffffffffffffffff1916149050919050565b611a9081612597565b611acf576040517f08c379a0000000000000000000000000000000000000000000000000000000008152600401611ac69061428c565b60405180910390fd5b50565b600033905090565b816004600083815260200190815260200160002060006101000a81548173ffffffffffffffffffffffffffffffffffffffff021916908373ffffffffffffffffffffffffffffffffffffffff160217905550808273ffffffffffffffffffffffffffffffffffffffff16611b4d836110b5565b73ffffffffffffffffffffffffffffffffffffffff167f8c5be1e5ebec7d5bd14f71427d1e84f3dd0314c0f7b2291e5b200ac8c7c3b92560405160405180910390a45050565b6001816000016000828254019250508190555050565b600080611bb5836110b5565b90508073ffffffffffffffffffffffffffffffffffffffff168473ffffffffffffffffffffffffffffffffffffffff161480611bf75750611bf68185611906565b5b80611c3557508373ffffffffffffffffffffffffffffffffffffffff16611c1d846108fb565b73ffffffffffffffffffffffffffffffffffffffff16145b91505092915050565b8273ffffffffffffffffffffffffffffffffffffffff16611c5e826110b5565b73ffffffffffffffffffffffffffffffffffffffff1614611cb4576040517f08c379a0000000000000000000000000000000000000000000000000000000008152600401611cab906145aa565b60405180910390fd5b600073ffffffffffffffffffffffffffffffffffffffff168273ffffffffffffffffffffffffffffffffffffffff1603611d23576040517f08c379a0000000000000000000000000000000000000000000000000000000008152600401611d1a9061463c565b60405180910390fd5b611d3083838360016125d8565b8273ffffffffffffffffffffffffffffffffffffffff16611d50826110b5565b73ffffffffffffffffffffffffffffffffffffffff1614611da6576040517f08c379a0000000000000000000000000000000000000000000000000000000008152600401611d9d906145aa565b60405180910390fd5b6004600082815260200190815260200160002060006101000a81549073ffffffffffffffffffffffffffffffffffffffff02191690556001600360008573ffffffffffffffffffffffffffffffffffffffff1673ffffffffffffffffffffffffffffffffffffffff168152602001908152602001600020600082825403925050819055506001600360008473ffffffffffffffffffffffffffffffffffffffff1673ffffffffffffffffffffffffffffffffffffffff16815260200190815260200160002060008282540192505081905550816002600083815260200190815260200160002060006101000a81548173ffffffffffffffffffffffffffffffffffffffff021916908373ffffffffffffffffffffffffffffffffffffffff160217905550808273ffffffffffffffffffffffffffffffffffffffff168473ffffffffffffffffffffffffffffffffffffffff167fddf252ad1be2c89b69c2b068fc378daa952ba7f163c4a11628f55a4df523b3ef60405160405180910390a4611f3283838360016126ec565b505050565b60008160000154905060008111611f83576040517f08c379a0000000000000000000000000000000000000000000000000000000008152600401611f7a906146a8565b60405180910390fd5b6001810382600001819055505050565b600081600001549050919050565b60006002600083815260200190815260200160002060009054906101000a900473ffffffffffffffffffffffffffffffffffffffff169050919050565b611fe6611ad2565b73ffffffffffffffffffffffffffffffffffffffff1661200461147d565b73ffffffffffffffffffffffffffffffffffffffff161461205a576040517f08c379a000000000000000000000000000000000000000000000000000000000815260040161205190614714565b60405180910390fd5b565b6000600760009054906101000a900473ffffffffffffffffffffffffffffffffffffffff16905081600760006101000a81548173ffffffffffffffffffffffffffffffffffffffff021916908373ffffffffffffffffffffffffffffffffffffffff1602179055508173ffffffffffffffffffffffffffffffffffffffff168173ffffffffffffffffffffffffffffffffffffffff167f8be0079c531659141344cd1fd0a4f28419497f9722a3daafe3b4186f6b6457e060405160405180910390a35050565b61212b816126f2565b600060066000838152602001908152602001600020805461214b90613c7e565b9050146121725760066000828152602001908152602001600020600061217191906132ef565b5b50565b8173ffffffffffffffffffffffffffffffffffffffff168373ffffffffffffffffffffffffffffffffffffffff16036121e3576040517f08c379a00000000000000000000000000000000000000000000000000000000081526004016121da90614780565b60405180910390fd5b80600560008573ffffffffffffffffffffffffffffffffffffffff1673ffffffffffffffffffffffffffffffffffffffff16815260200190815260200160002060008473ffffffffffffffffffffffffffffffffffffffff1673ffffffffffffffffffffffffffffffffffffffff16815260200190815260200160002060006101000a81548160ff0219169083151502179055508173ffffffffffffffffffffffffffffffffffffffff168373ffffffffffffffffffffffffffffffffffffffff167f17307eab39ab6107e8899845ad3d59bd9653f200f220920489ca2b5937696c31836040516122d49190613400565b60405180910390a3505050565b6122ec848484611c3e565b6122f884848484612840565b612337576040517f08c379a000000000000000000000000000000000000000000000000000000000815260040161232e90614812565b60405180910390fd5b50505050565b6123578282604051806020016040528060008152506129c7565b5050565b61236482612597565b6123a3576040517f08c379a000000000000000000000000000000000000000000000000000000000815260040161239a906148a4565b60405180910390fd5b806006600084815260200190815260200160002090816123c39190614a70565b505050565b6000811161240b576040517f08c379a00000000000000000000000000000000000000000000000000000000081526004016124029061438a565b60405180910390fd5b60405180608001604052808381526020018281526020013373ffffffffffffffffffffffffffffffffffffffff16815260200160011515815250600c6000848152602001908152602001600020600082015181600001556020820151816001015560408201518160020160006101000a81548173ffffffffffffffffffffffffffffffffffffffff021916908373ffffffffffffffffffffffffffffffffffffffff16021790555060608201518160020160146101000a81548160ff0219169083151502179055509050507f470031062672bc0246e132c723a729c4676710ec663a29e86c88678032daddea828233600160405161250c9493929190614b42565b60405180910390a15050565b606060405180602001604052806000815250905090565b606061253a82611a87565b6000612544612518565b90506000815111612564576040518060200160405280600081525061258f565b8061256e84612a22565b60405160200161257f929190614482565b6040516020818303038152906040525b915050919050565b60008073ffffffffffffffffffffffffffffffffffffffff166125b983611fa1565b73ffffffffffffffffffffffffffffffffffffffff1614159050919050565b6125e484848484612af0565b600073ffffffffffffffffffffffffffffffffffffffff168473ffffffffffffffffffffffffffffffffffffffff16036126265761262182612c16565b612665565b8273ffffffffffffffffffffffffffffffffffffffff168473ffffffffffffffffffffffffffffffffffffffff1614612664576126638483612c5f565b5b5b600073ffffffffffffffffffffffffffffffffffffffff168373ffffffffffffffffffffffffffffffffffffffff16036126a7576126a282612dcc565b6126e6565b8373ffffffffffffffffffffffffffffffffffffffff168373ffffffffffffffffffffffffffffffffffffffff16146126e5576126e48383612e9d565b5b5b50505050565b50505050565b60006126fd826110b5565b905061270d8160008460016125d8565b612716826110b5565b90506004600083815260200190815260200160002060006101000a81549073ffffffffffffffffffffffffffffffffffffffff02191690556001600360008373ffffffffffffffffffffffffffffffffffffffff1673ffffffffffffffffffffffffffffffffffffffff168152602001908152602001600020600082825403925050819055506002600083815260200190815260200160002060006101000a81549073ffffffffffffffffffffffffffffffffffffffff021916905581600073ffffffffffffffffffffffffffffffffffffffff168273ffffffffffffffffffffffffffffffffffffffff167fddf252ad1be2c89b69c2b068fc378daa952ba7f163c4a11628f55a4df523b3ef60405160405180910390a461283c8160008460016126ec565b5050565b60006128618473ffffffffffffffffffffffffffffffffffffffff16612f1c565b156129ba578373ffffffffffffffffffffffffffffffffffffffff1663150b7a0261288a611ad2565b8786866040518563ffffffff1660e01b81526004016128ac9493929190614bdc565b6020604051808303816000875af19250505080156128e857506040513d601f19601f820116820180604052508101906128e59190614c3d565b60015b61296a573d8060008114612918576040519150601f19603f3d011682016040523d82523d6000602084013e61291d565b606091505b506000815103612962576040517f08c379a000000000000000000000000000000000000000000000000000000000815260040161295990614812565b60405180910390fd5b805181602001fd5b63150b7a0260e01b7bffffffffffffffffffffffffffffffffffffffffffffffffffffffff1916817bffffffffffffffffffffffffffffffffffffffffffffffffffffffff1916149150506129bf565b600190505b949350505050565b6129d18383612f3f565b6129de6000848484612840565b612a1d576040517f08c379a0000000000000000000000000000000000000000000000000000000008152600401612a1490614812565b60405180910390fd5b505050565b606060006001612a318461315c565b01905060008167ffffffffffffffff811115612a5057612a4f613812565b5b6040519080825280601f01601f191660200182016040528015612a825781602001600182028036833780820191505090505b509050600082602001820190505b600115612ae5578080600190039150507f3031323334353637383961626364656600000000000000000000000000000000600a86061a8153600a8581612ad957612ad8614c6a565b5b04945060008503612a90575b819350505050919050565b6001811115612c1057600073ffffffffffffffffffffffffffffffffffffffff168473ffffffffffffffffffffffffffffffffffffffff1614612b845780600360008673ffffffffffffffffffffffffffffffffffffffff1673ffffffffffffffffffffffffffffffffffffffff1681526020019081526020016000206000828254612b7c9190614c99565b925050819055505b600073ffffffffffffffffffffffffffffffffffffffff168373ffffffffffffffffffffffffffffffffffffffff1614612c0f5780600360008573ffffffffffffffffffffffffffffffffffffffff1673ffffffffffffffffffffffffffffffffffffffff1681526020019081526020016000206000828254612c079190614171565b925050819055505b5b50505050565b600b80549050600e600083815260200190815260200160002081905550600b81908060018154018082558091505060019003906000526020600020016000909190919091505550565b60006001612c6c846111ed565b612c769190614c99565b9050600060106000848152602001908152602001600020549050818114612d5b576000600f60008673ffffffffffffffffffffffffffffffffffffffff1673ffffffffffffffffffffffffffffffffffffffff168152602001908152602001600020600084815260200190815260200160002054905080600f60008773ffffffffffffffffffffffffffffffffffffffff1673ffffffffffffffffffffffffffffffffffffffff168152602001908152602001600020600084815260200190815260200160002081905550816010600083815260200190815260200160002081905550505b6010600084815260200190815260200160002060009055600f60008573ffffffffffffffffffffffffffffffffffffffff1673ffffffffffffffffffffffffffffffffffffffff16815260200190815260200160002060008381526020019081526020016000206000905550505050565b60006001600b80549050612de09190614c99565b90506000600e60008481526020019081526020016000205490506000600b8381548110612e1057612e0f614113565b5b9060005260206000200154905080600b8381548110612e3257612e31614113565b5b906000526020600020018190555081600e600083815260200190815260200160002081905550600e600085815260200190815260200160002060009055600b805480612e8157612e80614ccd565b5b6001900381819060005260206000200160009055905550505050565b6000612ea8836111ed565b905081600f60008573ffffffffffffffffffffffffffffffffffffffff1673ffffffffffffffffffffffffffffffffffffffff168152602001908152602001600020600083815260200190815260200160002081905550806010600084815260200190815260200160002081905550505050565b6000808273ffffffffffffffffffffffffffffffffffffffff163b119050919050565b600073ffffffffffffffffffffffffffffffffffffffff168273ffffffffffffffffffffffffffffffffffffffff1603612fae576040517f08c379a0000000000000000000000000000000000000000000000000000000008152600401612fa590614d48565b60405180910390fd5b612fb781612597565b15612ff7576040517f08c379a0000000000000000000000000000000000000000000000000000000008152600401612fee90614db4565b60405180910390fd5b6130056000838360016125d8565b61300e81612597565b1561304e576040517f08c379a000000000000000000000000000000000000000000000000000000000815260040161304590614db4565b60405180910390fd5b6001600360008473ffffffffffffffffffffffffffffffffffffffff1673ffffffffffffffffffffffffffffffffffffffff16815260200190815260200160002060008282540192505081905550816002600083815260200190815260200160002060006101000a81548173ffffffffffffffffffffffffffffffffffffffff021916908373ffffffffffffffffffffffffffffffffffffffff160217905550808273ffffffffffffffffffffffffffffffffffffffff16600073ffffffffffffffffffffffffffffffffffffffff167fddf252ad1be2c89b69c2b068fc378daa952ba7f163c4a11628f55a4df523b3ef60405160405180910390a46131586000838360016126ec565b5050565b600080600090507a184f03e93ff9f4daa797ed6e38ed64bf6a1f01000000000000000083106131ba577a184f03e93ff9f4daa797ed6e38ed64bf6a1f01000000000000000083816131b0576131af614c6a565b5b0492506040810190505b6d04ee2d6d415b85acef810000000083106131f7576d04ee2d6d415b85acef810000000083816131ed576131ec614c6a565b5b0492506020810190505b662386f26fc10000831061322657662386f26fc10000838161321c5761321b614c6a565b5b0492506010810190505b6305f5e100831061324f576305f5e100838161324557613244614c6a565b5b0492506008810190505b612710831061327457612710838161326a57613269614c6a565b5b0492506004810190505b60648310613297576064838161328d5761328c614c6a565b5b0492506002810190505b600a83106132a6576001810190505b80915050919050565b60405180608001604052806000815260200160008152602001600073ffffffffffffffffffffffffffffffffffffffff1681526020016000151581525090565b5080546132fb90613c7e565b6000825580601f1061330d575061332c565b601f01602090049060005260206000209081019061332b919061332f565b5b50565b5b80821115613348576000816000905550600101613330565b5090565b6000604051905090565b600080fd5b600080fd5b60007fffffffff0000000000000000000000000000000000000000000000000000000082169050919050565b61339581613360565b81146133a057600080fd5b50565b6000813590506133b28161338c565b92915050565b6000602082840312156133ce576133cd613356565b5b60006133dc848285016133a3565b91505092915050565b60008115159050919050565b6133fa816133e5565b82525050565b600060208201905061341560008301846133f1565b92915050565b600081519050919050565b600082825260208201905092915050565b60005b8381101561345557808201518184015260208101905061343a565b60008484015250505050565b6000601f19601f8301169050919050565b600061347d8261341b565b6134878185613426565b9350613497818560208601613437565b6134a081613461565b840191505092915050565b600060208201905081810360008301526134c58184613472565b905092915050565b6000819050919050565b6134e0816134cd565b81146134eb57600080fd5b50565b6000813590506134fd816134d7565b92915050565b60006020828403121561351957613518613356565b5b6000613527848285016134ee565b91505092915050565b600073ffffffffffffffffffffffffffffffffffffffff82169050919050565b600061355b82613530565b9050919050565b61356b81613550565b82525050565b60006020820190506135866000830184613562565b92915050565b61359581613550565b81146135a057600080fd5b50565b6000813590506135b28161358c565b92915050565b600080604083850312156135cf576135ce613356565b5b60006135dd858286016135a3565b92505060206135ee858286016134ee565b9150509250929050565b613601816134cd565b82525050565b600060208201905061361c60008301846135f8565b92915050565b6000806040838503121561363957613638613356565b5b6000613647858286016134ee565b9250506020613658858286016134ee565b9150509250929050565b60008060006060848603121561367b5761367a613356565b5b6000613689868287016135a3565b935050602061369a868287016135a3565b92505060406136ab868287016134ee565b9150509250925092565b600081519050919050565b600082825260208201905092915050565b6000819050602082019050919050565b6136ea816134cd565b82525050565b6136f981613550565b82525050565b613708816133e5565b82525050565b60808201600082015161372460008501826136e1565b50602082015161373760208501826136e1565b50604082015161374a60408501826136f0565b50606082015161375d60608501826136ff565b50505050565b600061376f838361370e565b60808301905092915050565b6000602082019050919050565b6000613793826136b5565b61379d81856136c0565b93506137a8836136d1565b8060005b838110156137d95781516137c08882613763565b97506137cb8361377b565b9250506001810190506137ac565b5085935050505092915050565b600060208201905081810360008301526138008184613788565b905092915050565b600080fd5b600080fd5b7f4e487b7100000000000000000000000000000000000000000000000000000000600052604160045260246000fd5b61384a82613461565b810181811067ffffffffffffffff8211171561386957613868613812565b5b80604052505050565b600061387c61334c565b90506138888282613841565b919050565b600067ffffffffffffffff8211156138a8576138a7613812565b5b6138b182613461565b9050602081019050919050565b82818337600083830152505050565b60006138e06138db8461388d565b613872565b9050828152602081018484840111156138fc576138fb61380d565b5b6139078482856138be565b509392505050565b600082601f83011261392457613923613808565b5b81356139348482602086016138cd565b91505092915050565b60006020828403121561395357613952613356565b5b600082013567ffffffffffffffff8111156139715761397061335b565b5b61397d8482850161390f565b91505092915050565b60808201600082015161399c60008501826136e1565b5060208201516139af60208501826136e1565b5060408201516139c260408501826136f0565b5060608201516139d560608501826136ff565b50505050565b60006080820190506139f06000830184613986565b92915050565b600060208284031215613a0c57613a0b613356565b5b6000613a1a848285016135a3565b91505092915050565b613a2c816133e5565b8114613a3757600080fd5b50565b600081359050613a4981613a23565b92915050565b60008060408385031215613a6657613a65613356565b5b6000613a74858286016135a3565b9250506020613a8585828601613a3a565b9150509250929050565b600067ffffffffffffffff821115613aaa57613aa9613812565b5b613ab382613461565b9050602081019050919050565b6000613ad3613ace84613a8f565b613872565b905082815260208101848484011115613aef57613aee61380d565b5b613afa8482856138be565b509392505050565b600082601f830112613b1757613b16613808565b5b8135613b27848260208601613ac0565b91505092915050565b60008060008060808587031215613b4a57613b49613356565b5b6000613b58878288016135a3565b9450506020613b69878288016135a3565b9350506040613b7a878288016134ee565b925050606085013567ffffffffffffffff811115613b9b57613b9a61335b565b5b613ba787828801613b02565b91505092959194509250565b60008060408385031215613bca57613bc9613356565b5b600083013567ffffffffffffffff811115613be857613be761335b565b5b613bf48582860161390f565b9250506020613c05858286016134ee565b9150509250929050565b60008060408385031215613c2657613c25613356565b5b6000613c34858286016135a3565b9250506020613c45858286016135a3565b9150509250929050565b7f4e487b7100000000000000000000000000000000000000000000000000000000600052602260045260246000fd5b60006002820490506001821680613c9657607f821691505b602082108103613ca957613ca8613c4f565b5b50919050565b7f4552433732313a20617070726f76616c20746f2063757272656e74206f776e6560008201527f7200000000000000000000000000000000000000000000000000000000000000602082015250565b6000613d0b602183613426565b9150613d1682613caf565b604082019050919050565b60006020820190508181036000830152613d3a81613cfe565b9050919050565b7f4552433732313a20617070726f76652063616c6c6572206973206e6f7420746f60008201527f6b656e206f776e6572206f7220617070726f76656420666f7220616c6c000000602082015250565b6000613d9d603d83613426565b9150613da882613d41565b604082019050919050565b60006020820190508181036000830152613dcc81613d90565b9050919050565b7f596f7520617265206e6f74206f776e6572206f662074686973206e6674000000600082015250565b6000613e09601d83613426565b9150613e1482613dd3565b602082019050919050565b60006020820190508181036000830152613e3881613dfc565b9050919050565b7f4974656d20697320616c7265616479206f6e2073616c65000000000000000000600082015250565b6000613e75601783613426565b9150613e8082613e3f565b602082019050919050565b60006020820190508181036000830152613ea481613e68565b9050919050565b7f5072696365206d75737420626520657175616c20746f206c697374696e67507260008201527f6963650000000000000000000000000000000000000000000000000000000000602082015250565b6000613f07602383613426565b9150613f1282613eab565b604082019050919050565b60006020820190508181036000830152613f3681613efa565b9050919050565b7f4552433732313a2063616c6c6572206973206e6f7420746f6b656e206f776e6560008201527f72206f7220617070726f76656400000000000000000000000000000000000000602082015250565b6000613f99602d83613426565b9150613fa482613f3d565b604082019050919050565b60006020820190508181036000830152613fc881613f8c565b9050919050565b7f596f7520616c7265616479206f776e2074686973204e46540000000000000000600082015250565b6000614005601883613426565b915061401082613fcf565b602082019050919050565b6000602082019050818103600083015261403481613ff8565b9050919050565b7f506c65617365207375626d6974207468652061736b696e672070726963650000600082015250565b6000614071601e83613426565b915061407c8261403b565b602082019050919050565b600060208201905081810360008301526140a081614064565b9050919050565b7f496e646578206f7574206f6620626f756e647300000000000000000000000000600082015250565b60006140dd601383613426565b91506140e8826140a7565b602082019050919050565b6000602082019050818103600083015261410c816140d0565b9050919050565b7f4e487b7100000000000000000000000000000000000000000000000000000000600052603260045260246000fd5b7f4e487b7100000000000000000000000000000000000000000000000000000000600052601160045260246000fd5b600061417c826134cd565b9150614187836134cd565b925082820190508082111561419f5761419e614142565b5b92915050565b60006141b0826134cd565b91507fffffffffffffffffffffffffffffffffffffffffffffffffffffffffffffffff82036141e2576141e1614142565b5b600182019050919050565b600081905092915050565b60006142038261341b565b61420d81856141ed565b935061421d818560208601613437565b80840191505092915050565b600061423582846141f8565b915081905092915050565b7f4552433732313a20696e76616c696420746f6b656e2049440000000000000000600082015250565b6000614276601883613426565b915061428182614240565b602082019050919050565b600060208201905081810360008301526142a581614269565b9050919050565b7f4552433732313a2061646472657373207a65726f206973206e6f74206120766160008201527f6c6964206f776e65720000000000000000000000000000000000000000000000602082015250565b6000614308602983613426565b9150614313826142ac565b604082019050919050565b60006020820190508181036000830152614337816142fb565b9050919050565b7f5072696365206d757374206265206174206c6561737420312077656900000000600082015250565b6000614374601c83613426565b915061437f8261433e565b602082019050919050565b600060208201905081810360008301526143a381614367565b9050919050565b7f4974656d206973206e6f74206f6e2073616c6500000000000000000000000000600082015250565b60006143e0601383613426565b91506143eb826143aa565b602082019050919050565b6000602082019050818103600083015261440f816143d3565b9050919050565b7f546f6b656e2055524920616c7265616479206578697374730000000000000000600082015250565b600061444c601883613426565b915061445782614416565b602082019050919050565b6000602082019050818103600083015261447b8161443f565b9050919050565b600061448e82856141f8565b915061449a82846141f8565b91508190509392505050565b7f4f776e61626c653a206e6577206f776e657220697320746865207a65726f206160008201527f6464726573730000000000000000000000000000000000000000000000000000602082015250565b6000614502602683613426565b915061450d826144a6565b604082019050919050565b60006020820190508181036000830152614531816144f5565b9050919050565b7f4552433732313a207472616e736665722066726f6d20696e636f72726563742060008201527f6f776e6572000000000000000000000000000000000000000000000000000000602082015250565b6000614594602583613426565b915061459f82614538565b604082019050919050565b600060208201905081810360008301526145c381614587565b9050919050565b7f4552433732313a207472616e7366657220746f20746865207a65726f2061646460008201527f7265737300000000000000000000000000000000000000000000000000000000602082015250565b6000614626602483613426565b9150614631826145ca565b604082019050919050565b6000602082019050818103600083015261465581614619565b9050919050565b7f436f756e7465723a2064656372656d656e74206f766572666c6f770000000000600082015250565b6000614692601b83613426565b915061469d8261465c565b602082019050919050565b600060208201905081810360008301526146c181614685565b9050919050565b7f4f776e61626c653a2063616c6c6572206973206e6f7420746865206f776e6572600082015250565b60006146fe602083613426565b9150614709826146c8565b602082019050919050565b6000602082019050818103600083015261472d816146f1565b9050919050565b7f4552433732313a20617070726f766520746f2063616c6c657200000000000000600082015250565b600061476a601983613426565b915061477582614734565b602082019050919050565b600060208201905081810360008301526147998161475d565b9050919050565b7f4552433732313a207472616e7366657220746f206e6f6e20455243373231526560008201527f63656976657220696d706c656d656e7465720000000000000000000000000000602082015250565b60006147fc603283613426565b9150614807826147a0565b604082019050919050565b6000602082019050818103600083015261482b816147ef565b9050919050565b7f45524337323155524953746f726167653a2055524920736574206f66206e6f6e60008201527f6578697374656e7420746f6b656e000000000000000000000000000000000000602082015250565b600061488e602e83613426565b915061489982614832565b604082019050919050565b600060208201905081810360008301526148bd81614881565b9050919050565b60008190508160005260206000209050919050565b60006020601f8301049050919050565b600082821b905092915050565b6000600883026149267fffffffffffffffffffffffffffffffffffffffffffffffffffffffffffffffff826148e9565b61493086836148e9565b95508019841693508086168417925050509392505050565b6000819050919050565b600061496d614968614963846134cd565b614948565b6134cd565b9050919050565b6000819050919050565b61498783614952565b61499b61499382614974565b8484546148f6565b825550505050565b600090565b6149b06149a3565b6149bb81848461497e565b505050565b5b818110156149df576149d46000826149a8565b6001810190506149c1565b5050565b601f821115614a24576149f5816148c4565b6149fe846148d9565b81016020851015614a0d578190505b614a21614a19856148d9565b8301826149c0565b50505b505050565b600082821c905092915050565b6000614a4760001984600802614a29565b1980831691505092915050565b6000614a608383614a36565b9150826002028217905092915050565b614a798261341b565b67ffffffffffffffff811115614a9257614a91613812565b5b614a9c8254613c7e565b614aa78282856149e3565b600060209050601f831160018114614ada5760008415614ac8578287015190505b614ad28582614a54565b865550614b3a565b601f198416614ae8866148c4565b60005b82811015614b1057848901518255600182019150602085019450602081019050614aeb565b86831015614b2d5784890151614b29601f891682614a36565b8355505b6001600288020188555050505b505050505050565b6000608082019050614b5760008301876135f8565b614b6460208301866135f8565b614b716040830185613562565b614b7e60608301846133f1565b95945050505050565b600081519050919050565b600082825260208201905092915050565b6000614bae82614b87565b614bb88185614b92565b9350614bc8818560208601613437565b614bd181613461565b840191505092915050565b6000608082019050614bf16000830187613562565b614bfe6020830186613562565b614c0b60408301856135f8565b8181036060830152614c1d8184614ba3565b905095945050505050565b600081519050614c378161338c565b92915050565b600060208284031215614c5357614c52613356565b5b6000614c6184828501614c28565b91505092915050565b7f4e487b7100000000000000000000000000000000000000000000000000000000600052601260045260246000fd5b6000614ca4826134cd565b9150614caf836134cd565b9250828203905081811115614cc757614cc6614142565b5b92915050565b7f4e487b7100000000000000000000000000000000000000000000000000000000600052603160045260246000fd5b7f4552433732313a206d696e7420746f20746865207a65726f2061646472657373600082015250565b6000614d32602083613426565b9150614d3d82614cfc565b602082019050919050565b60006020820190508181036000830152614d6181614d25565b9050919050565b7f4552433732313a20746f6b656e20616c7265616479206d696e74656400000000600082015250565b6000614d9e601c83613426565b9150614da982614d68565b602082019050919050565b60006020820190508181036000830152614dcd81614d91565b905091905056fea26469706673582212208e6a899f9f339a0eb2233f71fb7d2df5c3486e75bc66ca8cd7862ab06e7e4efc64736f6c63430008110033",
  "immutableReferences": {},
  "source": "// SPDX-License-Identifier: MIT\npragma solidity >=0.4.22 <0.9.0;\nimport \"@openzeppelin/contracts/token/ERC721/extensions/ERC721URIStorage.sol\";\nimport \"@openzeppelin/contracts/utils/Counters.sol\";\nimport \"@openzeppelin/contracts/access/Ownable.sol\";\n\n\ncontract NftMarket is ERC721URIStorage, Ownable {\n  using Counters for Counters.Counter;\n\n  Counters.Counter private _listedItems;\n  Counters.Counter private _tokenIds;\n\n  struct NftItem {\n    uint tokenId;\n    uint price;\n    address creator;\n    bool isListed;\n  }\n\n  uint public listingPrice = 0.025 ether;\n\n  // all takenIds in the array\n  uint[] private _allNfts;\n  mapping(uint => NftItem) private _idToNftItem;\n\n  mapping(string => bool) private _usedTokenURIs;\n  mapping(uint => uint) private _idToNftIndex;\n  \n  mapping(address => mapping(uint => uint)) private _ownedTokens;\n  mapping(uint => uint) private _idToOwnedIndex;\n\n  event NftItemCreated (\n    uint tokenId,\n    uint price,\n    address creator,\n    bool isListed\n  );\n\n  constructor() ERC721(\"CreaturesNFT\", \"CNFT\") {}\n\n  function setListingPrice(uint newPrice) external onlyOwner {\n    require(newPrice > 0, \"Price must be at least 1 wei\");\n    listingPrice = newPrice;\n  }\n\n  function getNftItem(uint tokenId) public view returns (NftItem memory) {\n    return _idToNftItem[tokenId];\n  }\n\n  function listedItemsCount() public view returns (uint) {\n    return _listedItems.current();\n  }\n\n  function tokenURIExists(string memory tokenURI) public view returns (bool) {\n    return _usedTokenURIs[tokenURI] == true;\n  }\n\n  function totalSupply() public view returns (uint) {\n    return _allNfts.length;\n  }\n\n  function tokenByIndex(uint index) public view returns (uint) {\n    require(index  < totalSupply(), \"Index out of bounds\");\n    return _allNfts[index];\n  }\n\n  function tokenOfOwnerByIndex(address owner, uint index) public view returns (uint) {\n    require(index  < ERC721.balanceOf(owner), \"Index out of bounds\");\n    return _ownedTokens[owner][index];\n  }\n\n\n  function getAllNftsOnSale() public view returns (NftItem[] memory) {\n    uint allItemsCount = totalSupply();\n    uint currentIndex = 0;\n    NftItem[] memory items = new NftItem[](_listedItems.current());\n\n    for (uint i = 0; i < allItemsCount ; i++) {\n      uint tokenId = tokenByIndex(i);\n      NftItem storage item = _idToNftItem[tokenId];\n\n      if (item.isListed == true) {\n        items[currentIndex] = item;\n        currentIndex += 1;\n      }\n    }\n\n    return items;\n  }\n\n  function burnToken(uint tokenId) public {\n    _burn(tokenId);\n  }\n\n  function getOwnedNfts() public view returns (NftItem[] memory) {\n    uint ownedItemsCount = ERC721.balanceOf(msg.sender);\n\n    NftItem[] memory items = new NftItem[](ownedItemsCount);\n\n    for (uint i = 0; i < ownedItemsCount; i++) {\n      uint tokenId = tokenOfOwnerByIndex(msg.sender, i);\n      NftItem storage item = _idToNftItem[tokenId];\n      items[i] = item;\n    }\n\n    return items;\n  }\n\n  function mintToken(string memory tokenURI, uint price) public payable returns (uint) {\n    require(!tokenURIExists(tokenURI), \"Token URI already exists\");\n    require(msg.value == listingPrice, \"Price must be equal to listingPrice\");\n    \n    _tokenIds.increment();\n    _listedItems.increment();\n\n    uint newTokenId = _tokenIds.current();\n\n    _safeMint(msg.sender, newTokenId);\n    _setTokenURI(newTokenId, tokenURI);\n    _createNftItem(newTokenId, price);\n    _usedTokenURIs[tokenURI] = true;\n\n    return newTokenId;\n  }\n\n  function buyNft(uint tokenId) public payable {\n    uint price = _idToNftItem[tokenId].price;\n    address owner = ERC721.ownerOf(tokenId);\n\n    require(msg.sender != owner, \"You already own this NFT\");\n    require(msg.value == price, \"Please submit the asking price\");\n\n    _idToNftItem[tokenId].isListed = false;\n    _listedItems.decrement();\n\n    _transfer(owner, msg.sender, tokenId);\n    payable(owner).transfer(msg.value);\n  }\n\n  function placeNftOnSale(uint tokenId, uint newPrice) public payable {\n    require(ERC721.ownerOf(tokenId) == msg.sender, \"You are not owner of this nft\");\n    require(_idToNftItem[tokenId].isListed == false, \"Item is already on sale\");\n    require(msg.value == listingPrice, \"Price must be equal to listingPrice\");\n\n    _idToNftItem[tokenId].isListed = true;\n    _idToNftItem[tokenId].price = newPrice;\n    _listedItems.increment();\n  }\n\n  function unlistNft(uint tokenId) public {\n    require(ERC721.ownerOf(tokenId) == msg.sender, \"You are not owner of this nft\");\n    require(_idToNftItem[tokenId].isListed == true, \"Item is not on sale\");\n    \n    _idToNftItem[tokenId].isListed = false;\n    _listedItems.decrement();\n  }\n\n  function _createNftItem(uint tokenId, uint price) private {\n    require(price > 0, \"Price must be at least 1 wei\");\n    \n    _idToNftItem[tokenId] = NftItem(\n      tokenId,\n      price,\n      msg.sender,\n      true\n    );\n\n    emit NftItemCreated(tokenId, price, msg.sender, true);\n  }\n\n  function _beforeTokenTransfer(address from, address to, uint tokenId, uint256 batchSize) internal virtual override {\n    super._beforeTokenTransfer(from, to, tokenId, batchSize);\n\n    if (from == address(0)) {\n      _addTokenToAllTokensEnumeration(tokenId);\n    } else if (from != to) {\n      _removeTokenFromOwnerEnumeration(from, tokenId);\n    }\n\n    if (to == address(0)) {\n      _removeTokenFromAllTokensEnumeration(tokenId);\n    } else if (to != from) {\n      _addTokenToOwnerEnumeration(to, tokenId);\n    }\n  }\n\n  function _addTokenToAllTokensEnumeration(uint tokenId) private {\n    _idToNftIndex[tokenId] = _allNfts.length;\n    _allNfts.push(tokenId);\n  }\n\n  function _addTokenToOwnerEnumeration(address to, uint tokenId) private {\n    uint length = ERC721.balanceOf(to);\n\n    _ownedTokens[to][length] = tokenId;\n    _idToOwnedIndex[tokenId] = length;\n  }\n\n  function _removeTokenFromOwnerEnumeration(address from, uint tokenId) private {\n    uint lastTokenIndex = ERC721.balanceOf(from) - 1;\n    uint tokenIndex = _idToOwnedIndex[tokenId];\n\n    if (tokenIndex != lastTokenIndex) {\n      uint lastTokenId = _ownedTokens[from][lastTokenIndex];\n\n      _ownedTokens[from][tokenIndex] = lastTokenId;\n      _idToOwnedIndex[lastTokenId] = tokenIndex;\n    }\n\n    delete _idToOwnedIndex[tokenId];\n    delete _ownedTokens[from][lastTokenIndex];\n  }\n\n  function _removeTokenFromAllTokensEnumeration(uint tokenId) private {\n    uint lastTokenIndex = _allNfts.length - 1;\n    uint tokenIndex = _idToNftIndex[tokenId];\n    uint lastTokenId = _allNfts[lastTokenIndex];\n\n    _allNfts[tokenIndex] = lastTokenId;\n    _idToNftIndex[lastTokenId] = tokenIndex;\n\n    delete _idToNftIndex[tokenId];\n    _allNfts.pop();\n  }\n}\n",
  "sourcePath": "/home/gonzalo/Learning/Blockchain/nft-marketplace/contracts/NftMarket.sol",
  "compiler": {
    "name": "solc",
    "version": "0.8.17+commit.8df45f5f.Emscripten.clang"
  },
  "schemaVersion": "3.4.11",
  "updatedAt": "2023-02-03T19:00:43.003Z",
  "networkType": "ethereum",
  "devdoc": {
    "kind": "dev",
    "methods": {
      "approve(address,uint256)": {
        "details": "See {IERC721-approve}."
      },
      "balanceOf(address)": {
        "details": "See {IERC721-balanceOf}."
      },
      "getApproved(uint256)": {
        "details": "See {IERC721-getApproved}."
      },
      "isApprovedForAll(address,address)": {
        "details": "See {IERC721-isApprovedForAll}."
      },
      "name()": {
        "details": "See {IERC721Metadata-name}."
      },
      "owner()": {
        "details": "Returns the address of the current owner."
      },
      "ownerOf(uint256)": {
        "details": "See {IERC721-ownerOf}."
      },
      "renounceOwnership()": {
        "details": "Leaves the contract without owner. It will not be possible to call `onlyOwner` functions anymore. Can only be called by the current owner. NOTE: Renouncing ownership will leave the contract without an owner, thereby removing any functionality that is only available to the owner."
      },
      "safeTransferFrom(address,address,uint256)": {
        "details": "See {IERC721-safeTransferFrom}."
      },
      "safeTransferFrom(address,address,uint256,bytes)": {
        "details": "See {IERC721-safeTransferFrom}."
      },
      "setApprovalForAll(address,bool)": {
        "details": "See {IERC721-setApprovalForAll}."
      },
      "supportsInterface(bytes4)": {
        "details": "See {IERC165-supportsInterface}."
      },
      "symbol()": {
        "details": "See {IERC721Metadata-symbol}."
      },
      "tokenURI(uint256)": {
        "details": "See {IERC721Metadata-tokenURI}."
      },
      "transferFrom(address,address,uint256)": {
        "details": "See {IERC721-transferFrom}."
      },
      "transferOwnership(address)": {
        "details": "Transfers ownership of the contract to a new account (`newOwner`). Can only be called by the current owner."
      }
    },
    "version": 1
  },
  "userdoc": {
    "kind": "user",
    "methods": {},
    "version": 1
  }
}